:100000000C945D000C9485000C9485000C94850084
:100010000C9485000C9485000C9485000C9485004C
:100020000C9485000C9485000C9485000C9485003C
:100030000C9485000C9485000C9485000C9485002C
:100040000C942A030C9485000C9485000C94850074
:100050000C9485000C9485000C9485000C9485000C
:100060000C9485000C94850000000008000201003B
:100070000003040700000000000000000000000072
:10008000250028002B0000000000240027002A0083
:10009000040404040404040402020202020203032E
:1000A0000303030301020408102040800102040836
:1000B0001020010204081020620411241FBECFEF9B
:1000C000D8E0DEBFCDBF11E0A0E0B1E0EEEBF9E09B
:1000D00002C005900D92AE34B107D9F721E0AEE42D
:1000E000B1E001C01D92AF36B207E1F710E0CDE5F7
:1000F000D0E004C02197FE010E94D704CC35D1077F
:10010000C9F70E9474030C94DD040C94000090E085
:10011000FC01EC55FF4F249180579F4FFC018491C7
:10012000882399F090E0880F991FFC01EA57FF4F50
:10013000A591B491FC01E458FF4F859194918FB73C
:10014000F894EC91E22BEC938FBF089590E0FC01C2
:10015000E859FF4F2491FC01EC55FF4F3491FC010D
:10016000E057FF4FE491EE23C9F0222339F023300A
:1001700001F1A8F4213019F1223029F1F0E0EE0F5D
:10018000FF1FE458FF4FA591B4918FB7F894EC91FD
:10019000611126C030953E233C938FBF08952730D0
:1001A000A9F02830C9F0243049F7809180008F7D74
:1001B00003C0809180008F7780938000DFCF84B56B
:1001C0008F7784BDDBCF84B58F7DFBCF8091B0006E
:1001D0008F778093B000D2CF8091B0008F7DF9CF20
:1001E0003E2BDACF3FB7F8948091530190915401A0
:1001F000A0915501B091560126B5A89B05C02F3F8F
:1002000019F00196A11DB11D3FBFBA2FA92F982F3C
:100210008827BC01CD01620F711D811D911D42E037
:10022000660F771F881F991F4A95D1F708958F92FF
:100230009F92AF92BF92CF92DF92EF92FF924B01CB
:100240005C010E94F2006B017C010E94F2006C19BB
:100250007D098E099F09683E734081059105A8F3C9
:1002600021E0821A9108A108B10888EEC80E83E047
:10027000D81EE11CF11C81149104A104B10429F7DA
:10028000FF90EF90DF90CF90BF90AF909F908F90B6
:100290000895AF92BF92CF92DF92EF92FF920F93A9
:1002A0001F93CF93DF936C017B018B01040F151F0C
:1002B000EB015E01AE18BF08C017D10759F0699174
:1002C000D601ED91FC910190F081E02DC6010995D8
:1002D000892B79F7C501DF91CF911F910F91FF9085
:1002E000EF90DF90CF90BF90AF900895089590E089
:1002F00080E008958F929F92AF92BF920F931F93C9
:10030000CF93DF93CDB7DEB7A1970FB6F894DEBFDA
:100310000FBECDBF19A2423008F44AE08E010F5D36
:100320001F4F842E912CB12CA12CA50194010E9469
:100330009F04E62FB901CA01EA3044F5E05DD80117
:10034000EE938D01232B242B252B79F790E080E071
:10035000109769F0FD0101900020E9F73197AF0196
:100360004A1B5B0BBD0187E591E00E944901A19604
:100370000FB6F894DEBF0FBECDBFDF91CF911F91B6
:100380000F91BF90AF909F908F900895E95CD7CF69
:10039000FC0101900020E9F73197AF01481B590B90
:1003A000BC0187E591E00C944901CF93DF93EC0108
:1003B00060E08E810E94A60061E08E810E94A6000E
:1003C00060E08E810E94A6008BE891E00197F1F732
:1003D000DF91CF910895CF92DF92EF92FF920F932A
:1003E0001F93CF93DF936C017C0187E0E80EF11C33
:1003F000D0E0C0E0062F10E0B8010C2E02C07595C9
:1004000067950A94E2F76170F70181917F010E947C
:10041000A6002196C430D10579F7C601DF91CF91AE
:100420001F910F91FF90EF90DF90CF900C94D5012A
:10043000CF92DF92EF92FF920F931F93CF93DF93B0
:10044000EC01F62E642F8C810E94A6008D818F3FD7
:1004500019F060E00E94A6000F2D10E08F8584FF48
:1004600025C06E0187E0C80ED11CF12CE12CB8012B
:100470000E2C02C0759567950A94E2F76170F6013B
:1004800081916F010E94A600FFEFEF1AFF0A88E03A
:10049000E816F10461F7CE01DF91CF911F910F9122
:1004A000FF90EF90DF90CF900C94D501B80184E0DD
:1004B000759567958A95E1F7CE010E94EB016F2D46
:1004C000CE01DF91CF911F910F91FF90EF90DF90C0
:1004D000CF900C94EB0140E0682F87E591E00C94FD
:1004E000180281E00E946B028BE39FE10197F1F714
:1004F0000895CF93DF93823029F49091660198603C
:100500009093660180936A0110926B0180E480935E
:100510006C0180E180936D0180E580936E01809194
:100520005B010E94870080915C018F3F11F00E9467
:10053000870080915D010E948700C7E5D1E09E01A0
:10054000275531408091660184FD0AC084E090E027
:100550002196281739073CF48E810E948700EFCF3F
:1005600088E090E0F5CF8BE39DE00197F1F760E044
:1005700080915B010E94A60060E080915D010E9475
:10058000A60080915C018F3F19F060E00E94A600F8
:100590008091660184FD34C063E087E591E00E94AC
:1005A000EB01CBE4D6E4CE010197F1F763E087E5F8
:1005B00091E00E94EB012197F1F763E087E591E07C
:1005C0000E94EB0183E592E00197F1F762E087E595
:1005D00091E00E94EB018091660180620E946B02B3
:1005E00084E0809367018CE00E946B020E9471029C
:1005F00082E08093680186E0DF91CF910C946B02DA
:1006000080620E946B028BE496E40197F1F780917F
:10061000660180620E946B0283E592E00197F1F728
:100620008091660180620E946B02D5CF90916A0131
:10063000891710F08FEF890FE82FF0E0E95AFE4F8D
:10064000848980680C946B0241E00E94180281E06A
:1006500090E008951F920F920FB60F9211242F93DE
:100660003F938F939F93AF93BF9380914F0190914E
:100670005001A0915101B091520130914E0123E0FF
:10068000230F2D3758F50196A11DB11D20934E0162
:1006900080934F0190935001A0935101B093520168
:1006A0008091530190915401A0915501B091560150
:1006B0000196A11DB11D8093530190935401A09305
:1006C0005501B0935601BF91AF919F918F913F918A
:1006D0002F910F900FBE0F901F90189526E8230FB3
:1006E0000296A11DB11DD2CF789484B5826084BDDD
:1006F00084B5816084BD85B5826085BD85B5816026
:1007000085BD80916E00816080936E0010928100A3
:10071000809181008260809381008091810081605E
:10072000809381008091800081608093800080911F
:10073000B10084608093B1008091B00081608093AB
:10074000B00080917A00846080937A0080917A0072
:10075000826080937A0080917A00816080937A0031
:1007600080917A00806880937A001092C10082E0C4
:100770000E94790288E00E94870089E00E94870039
:100780008AE00E94870087E00E94870086E00E943E
:10079000870061E08AE00E94A60061E087E00E9495
:1007A000A60060E086E00E94A6000E94710280E040
:1007B0000E9416038CE091E00E94C8016CED75E088
:1007C00080E090E00E9417010E94710280E4782E80
:1007D00088248A9493E0992EA12CB12CC0E0D0E01B
:1007E00070927C0080917A00806480937A0080917E
:1007F0007A0086FDFCCFA0917800B091790024E6C4
:1008000030E00E94D004A50194010E948004690197
:100810007A01890180E00E9416038CE191E00E9438
:10082000C8014AE0C701B601F7FE0EC041E06DE223
:1008300087E591E00E94180266277727CB016C19A3
:100840007D098E099F094AE00E947A0184E291E0C5
:100850000E94C801083211053CF561E088E00E9461
:10086000A60060E089E00E94A60081E00E941603D5
:100870008BE291E00E94C80161E08AE00E94A6003C
:1008800061E087E00E94A60060E086E00E94A6008A
:1008900064E670E080E090E00E941701209709F480
:1008A0009FCF0E9400009CCF60E088E00E94A600DD
:1008B00061E089E00E94A60081E00E9416038CE3BB
:1008C00091E0D8CFE7E5F1E01382128284E091E075
:1008D000918380838CE084838FEF85838BE0868394
:1008E00085E0878384E0808783E0818782E0828758
:1008F0001386148615861686178681E00C94790275
:10090000052E97FB1EF400940E94970457FD07D014
:100910000E949F0407FC03D04EF40C94970450955A
:100920004095309521953F4F4F4F5F4F08959095DB
:100930008095709561957F4F8F4F9F4F0895A1E2ED
:100940001A2EAA1BBB1BFD010DC0AA1FBB1FEE1F49
:10095000FF1FA217B307E407F50720F0A21BB30B94
:10096000E40BF50B661F771F881F991F1A9469F710
:1009700060957095809590959B01AC01BD01CF016C
:100980000895A29FB001B39FC001A39F700D811D68
:100990001124911DB29F700D811D1124911D089588
:1009A0000E94C104B7FF0895821B930B0895EE0FB8
:0E09B000FF1F0590F491E02D0994F894FFCFFD
:1009BE00000000002403490177017601537065653C
:1009CE00644375652053797374656D005370656566
:1009DE00643A2000206B6D2F6820004D6F64653ADD
:1009EE002059454C4C4F5720202020004D6F6465F8
:0E09FE003A2057484954452020202020000070
:00000001FF
